:020000040800F2
:10000000C007002089010008DB1400084511000822
:10001000D91400088F020008A5180008000000008D
:100020000000000000000000000000002D16000885
:10003000DD020008000000002915000899160008DC
:10004000A3010008A3010008A3010008A301000800
:10005000A3010008A3010008A3010008A3010008F0
:10006000DF020008E5020008A3010008A301000860
:10007000A3010008A3010008A3010008A3010008D0
:10008000A3010008A3010008A3010008A3010008C0
:10009000A3010008A3010008A3010008A3010008B0
:1000A00001170008A3010008A3010008A30100082C
:1000B0000D1700081917000800000000A301000830
:1000C000A30100080000000000000000A3010008D8
:1000D00000000000A3010008A301000800000000C8
:1000E000A3010008A3010008A301000800F002F822
:1000F00000F03AF80AA090E8000C82448344AAF188
:100100000107DA4501D100F02FF8AFF2090EBAE885
:100110000F0013F0010F18BFFB1A43F0010318473B
:100120001019000030190000103A24BF78C878C1B7
:10013000FAD8520724BF30C830C144BF04680C60ED
:10014000704700000023002400250026103A28BF35
:1001500078C1FBD8520728BF30C148BF0B60704739
:100160001FB51FBD10B510BD00F058F81146FFF7C0
:10017000F7FF01F0A9FB00F076F803B4FFF7F2FFF8
:1001800003BC00F07DF8000009488047094800479B
:10019000FEE7FEE7FEE7FEE7FEE7FEE7FEE7FEE737
:1001A000FEE7FEE704480549054A064B7047000094
:1001B000FF160008ED000008C0010020C007002065
:1001C000C0030020C00300204FF0000200B513461A
:1001D00094469646203922BFA0E80C50A0E80C5067
:1001E000B1F12001BFF4F7AF090728BFA0E80C5018
:1001F00048BF0CC05DF804EB890028BF40F8042B11
:1002000008BF704748BF20F8022B11F0804F18BF7D
:1002100000F8012B7047704770477047754600F033
:100220002BF8AE4605006946534620F00700854688
:1002300018B020B5FFF7B6FFBDE820404FF000062C
:100240004FF000074FF000084FF0000B21F00701BE
:10025000AC46ACE8C009ACE8C009ACE8C009ACE801
:10026000C0098D46704710B50446AFF300802046A4
:10027000BDE81040FFF781BF0048704760010020D3
:1002800001491820ABBEFEE7260002007047FEE7DA
:1002900010B5104C012020600F4800F076F91E21A7
:1002A000012001F0C5F94FF4FA7000F021F80A4876
:1002B00000F06BF91E21002001F0BAF9502000F087
:1002C00017F8054800F061F901F0DEF90020206020
:1002D00010BD0000000000203800002070470420FE
:1002E00000F02AB8082000F027B872B6FEE7000038
:1002F00070B5044600F016F90546601C02D00448AB
:100300000078044400F00EF9401BA042FAD370BDFF
:1003100004000020042804D0082808D1044800F074
:1003200013BF04480078002801D101F007B97047D5
:10033000C718000820000020044910B50A680242CE
:1003400002D00860FFF7E6FF10BD00001404014072
:100350002DE9F84FDFF89C91002409F1040A0AF115
:10036000040B23460F270BF1040EBBE00125A5402B
:100370002A40AA4276D1DFF880C14E68A6EB0C086D
:1003800066452BD00DDC032E34D005DC36B3012EB0
:1003900019D0022E2FD11BE0112E16D0122E2AD1E9
:1003A00019E0B8F5881F19D006DCB8F5803F15D0E4
:1003B000B8F5801F1FD111E0B8F5001F0ED0B8F5B9
:1003C000041F18D10AE0CB6815E0CB681B1D12E0B2
:1003D000CB6808330FE0CB680C330CE08B682BB193
:1003E000012B4FF0080303D0456104E0042302E031
:1003F000056100E00023FF2A01D8064601E000F174
:1004000004064FEA840501D9A5F12005D6F800803D
:1004100007FA05FC28EA0C0803FA05F548EA05087E
:10042000C6F800804D68ED005BD5344DAE6946F0EE
:100430000106AE61AD6924F0030605F001050095E3
:100440002F4D06EB050CDCF80850A607360F07FA0F
:1004500006F825EA0805DFF8AC80404503D14FF0E7
:10046000000810E03DE0DFF8A080404502D14FF0E9
:10047000010808E0DFF89480404502D14FF00208FF
:1004800001E04FF0030808FA06F848EA0508CCF83E
:1004900008804D68D9F80060ED034D4601D516433C
:1004A00000E096432E604D68DAF80060AD035546D3
:1004B00001D5164300E096432E604D68DBF80060DE
:1004C000ED025D4601D5164300E096432E604D686F
:1004D000DEF80060AD02754601D5164300E0964394
:1004E0002E60641C0A6832FA04F57FF43FAFBDE861
:1004F000F88F0000000401400000111000100240BD
:100500000000014000080140000C014000100140C3
:100510008068084000D0012070470AB1016170472F
:100520000904FBE7014880687047000004000020D0
:1005300070B5040011D021684CF6CC4008602168E9
:1005400045F255500860D4E9000141602168A06877
:100550008860FFF7E7FF05460DE0012070BD00BF92
:10056000FFF7E0FF401B272805D92068C0688007F7
:1005700001D0032070BD2068C0688007F0D12168D9
:100580004AF6AA200860002070BD00684AF6AA2139
:100590000160002070470000024881680278114421
:1005A0008160704704000020074810B5016841F0E1
:1005B00010010160032000F075F80F2000F006F82C
:1005C00000F024F8002010BD0020024070B50D4D51
:1005D00004464FF47A712878B1FBF0F00A490968B3
:1005E000B1FBF0F000F0F0FA48B9102C07D200226D
:1005F0002146501E00F036F800206C6070BD0120CE
:1006000070BD000004000020100000200C4808B558
:10061000816941F001018161816901F0010100916D
:10062000C16941F08051C161C06900F08050009003
:100630000448416821F0E06141F00071416008BD6B
:100640000010024000000140002809DB00F01F02FA
:10065000012191404009800000F1E020C0F8001124
:1006600070470000F0B40E4B1B680C46C3F3022326
:10067000C3F10705042D00D90425191D072901D24E
:10068000002300E0DB1E012606FA05F1491E214089
:1006900099409E40761E16403143F0BC01F003B9EC
:1006A0000CED00E0064900F0070208684FF6FF0372
:1006B000184040EA0220034A1043086070470000D7
:1006C0000CED00E00000FA052DE9F0470F460500AB
:1006D00061D0434E306800F00700B84209D230685C
:1006E00020F0070038433060306800F00700B8425F
:1006F00051D128683B4C810712D5400703D560686B
:1007000040F4E06060602878000703D5606840F43A
:10071000605060606068A96820F0F0000843606085
:100720002878C00728D06868012810D021680228DE
:1007300010D0890700292EDA616821F003010143F6
:100740006160FFF7EFFE804641F288390DE02168D5
:100750008903EFE78901EDE7FFF7E4FEA0EB08016D
:10076000494502D90320BDE8F0876068696800F058
:100770000C00B0EB810FEFD1306800F00700B842F9
:100780000BD9306820F0070038433060306800F043
:100790000700B84201D00120E5E72878400705D5D9
:1007A0006068E96820F4E06008436060287800072A
:1007B00006D56068296920F4605040EAC100606095
:1007C00000F038F86168084AC1F30311515CC84071
:1007D0000649086006480068FFF7F8FE0020C2E7F7
:1007E0000020024000100240181A000810000020EB
:1007F000080000200448054900684968044AC1F31C
:100800000221515CC84070471000002000100240D7
:10081000281A00080448054900684968044AC1F3D9
:10082000C221515CC84070471000002000100240F7
:10083000281A000813A185B00FC98DE80F0015A074
:10084000154A00680490516801F00C00042804D097
:10085000082804D0114805B070471148FBE7C1F3E0
:100860008343C9031DF8030009D5516804AAC1F3E5
:100870004041515C0A4A5043B0FBF1F0EBE70949B3
:100880004843E8E702030405060708090A0B0C0DB4
:100890000E0F1010010200000010024000127A003A
:1008A000001BB70000093D002DE9F84F040070D08F
:1008B0002078C04DC00749D06868C0F38100012886
:1008C00007D06868C0F38100022809D16868C003B6
:1008D00006D52868800339D560680028E7D035E060
:1008E0006068B0F5803F0BD010B1B0F5A02F11D0EB
:1008F000286820F480302860286820F4802002E0F6
:10090000286840F480302860606890B1FFF70AFEE4
:1009100006460AE0286840F480202860F0E700BF1F
:10092000FFF700FE801B642873D828688003F7D582
:100930000CE0FFF7F7FD064605E000BFFFF7F2FD0C
:10094000801B6428F0D828688003F7D420789A4E5A
:1009500080074FF001094FF0000839D5686810F0A2
:100960000C0F07D06868C0F38100022809D16868BD
:10097000C00306D42868800714D52069012808D14F
:1009800010E02069B0B1C6F80090FFF7CBFD074634
:1009900005E00AE1FFF7C6FDC01B0228C4D828689D
:1009A0008007F7D52868616920F0F80040EAC100A7
:1009B00028600DE0C6F80080FFF7B4FD074604E0AC
:1009C000FFF7B0FDC01B022823D828688007F7D4A2
:1009D000207800072CD57948A169D9B1C0F80090DA
:1009E000FFF7A0FD074604E0FFF79CFDC01B0228AF
:1009F0000FD8686A8007F7D571484FF4FA5100683C
:100A0000B0FBF1F0009000BF0098411E0091FAD2B7
:100A10000EE080E0C0F80080FFF784FD074604E0A8
:100A2000FFF780FDC01B022875D8686A8007F7D4DD
:100A30002078400760D5E8690027C00008D4E8693D
:100A400040F08050E861E869012700F08050009094
:100A50005C480168C90513D40168834641F480717C
:100A60000160FFF75FFD824606E000BFFFF75AFD19
:100A7000A0EB0A0064284ED8DBF80000C005F5D5CD
:100A8000E06801280AD008B1052813D0286A20F0B0
:100A900001002862286A20F0040002E0286A40F081
:100AA00001002862E06841F2883B98B1FFF73AFD07
:100AB00082460BE0286A40F004002862EEE700BF9F
:100AC000FFF730FDA0EB0A0159455AD8286A800784
:100AD000F6D50CE0FFF726FD824605E0FFF722FD84
:100AE000A0EB0A0159454CD8286A8007F6D41FB1FB
:100AF000E86920F08050E861E06988B36968C1F373
:100B00008101022944D00228C6F8608004D0FFF792
:100B100009FD044638E034E0FFF704FD074604E031
:100B2000FFF700FDC01B02282BD828688001F7D4EE
:100B3000206AB0F5803F05D16868A16820F40030D4
:100B400008436860D4E908010843696821F4741116
:100B500008436860C6F86090FFF7E4FC044606E0CE
:100B600025E000BFFFF7DEFC001B022809D828683B
:100B70008001F7D51BE000BFFFF7D4FC001B022863
:100B800002D90320BDE8F88F28688001F4D40EE074
:100B90000128F7D06868226A00F48031914204D1BC
:100BA000616A00F47010884201D00120EAE7002059
:100BB000E8E7000000100240000042428004424288
:100BC000100000200070004010B5401EB0F1807F82
:100BD00001D3012010BD4FF0E02460610F216017A8
:100BE00000F061FE0020A06107202061002010BD00
:100BF0007047704770B590F83C20012A23D001243B
:100C000080F83C40022280F83D2003685A689D68C5
:100C100022F070060A6832435A600C4B02689A420E
:100C200005D0B2F1804F02D0094B9A4204D14968F5
:100C300025F080031943916080F83D40002180F841
:100C40003C10084670BD022070BD0000002C014021
:100C50000004004010B5040003D094F83D0010B12A
:100C600007E0012010BD002084F83C00204600F081
:100C70001FF8022084F83D00211D206800F052FD7D
:100C8000012084F8460084F83E0084F83F0084F890
:100C9000400084F8410084F8420084F8430084F85E
:100CA000440084F8450084F83D00002010BD000099
:100CB00008B51E4A01681E4891420ED1816941F46F
:100CC000006181618069002200F40060009011469B
:100CD0001820FFF7C7FC182013E0B1F1804F14D0A3
:100CE000144A914220D1C16941F00201C161C06939
:100CF000002200F00200009011461D20FFF7B2FC18
:100D00001D20BDE80840FFF79FBCC16941F001010B
:100D1000C161C069002200F00100009011461C2052
:100D2000FFF7A0FC1C20ECE708BD0000002C0140F0
:100D3000001002400004004090F83D10012901D04D
:100D400001207047022180F83D100068094988425F
:100D500005D0B0F1804F02D00749884204D18168A4
:100D600001F00701062903D0016841F0010101608B
:100D700000207047002C01400004004090F83D1016
:100D8000012901D001207047022180F83D1001683F
:100D9000CA6842F00102CA6000680A49884205D068
:100DA000B0F1804F02D00849884204D1816801F037
:100DB0000701062903D0016841F00101016000200C
:100DC00070470000002C01400004004001680A6ADE
:100DD00041F211131A4207D10A6A9B101A4203D139
:100DE0000A6822F001020A60012180F83D1000200B
:100DF000704770B5044690F83C00012817D00125D3
:100E000084F83C50022084F83D002068826822F07B
:100E1000770222F47F4282600868502830D00DDCCF
:100E200020284DD005DC98B310283BD148E00220A3
:100E300070BD302844D0402834D139E0602828D013
:100E4000702806D0B0F5805F2CD0B0F5005F29D1B6
:100E50000AE0CB68D1E90121206800F091FC20680C
:100E6000816841F0770109E0CB68D1E90121206870
:100E700000F086FC2068816841F48041816011E0C7
:100E8000CA684968206800F08DFC5021206807E09E
:100E900016E0CA684968206800F095FC6021206867
:100EA00000F078FC84F83D50002084F83C0070BDD0
:100EB000CA684968206800F075FC40212068EFE7A7
:100EC000226801461046EBE7704770B5044600689B
:100ED00001694FF00005C943890715D4C168C943AA
:100EE000890711D4E91E01610120207720688069FB
:100EF0008007204602D0FFF7E7FF04E000F098F8F3
:100F0000204600F096F8257720680169C943490713
:100F100017D4C168C943490713D46FF004010161B4
:100F2000022020772068806910F4407F204602D09C
:100F3000FFF7CAFF04E000F07BF8204600F079F8E4
:100F4000257720680169C943090716D4C168C943D8
:100F5000090712D46FF0080101610420207720688E
:100F6000C0698007204602D0FFF7AEFF04E000F022
:100F70005FF8204600F05DF8257720680169C943D5
:100F8000C90617D4C168C943C90613D46FF010014C
:100F90000161082020772068C06910F4407F204656
:100FA00002D0FFF791FF04E000F042F8204600F085
:100FB00040F8257720680169C943C90708D1C1688D
:100FC000C943C90704D1891E0161204600F032F8E7
:100FD00020680169C943090609D4C168C9430906E3
:100FE00005D46FF0800101612046FFF701FE206803
:100FF0000169C943490609D4C168C943490605D4F2
:101000006FF040010161204600F02AF82068016974
:10101000C94389060BD4C168C943890607D46FF058
:10102000200101612046BDE87040FFF7E2BD70BDC0
:1010300070477047074988420AD10748006801286D
:1010400004D00122D1020548FFF767BA00F000BBC7
:10105000704700008C00002000000020000C0140C0
:10106000704770B5040004D094F83D00002510B11D
:1010700006E0012070BD84F83C50204600F022F8C4
:10108000242084F83D002068C16821F40051C1602B
:10109000204600F0ABFB2068016921F4904101611A
:1010A0002068416921F02A0141612068C16841F44A
:1010B0000051C1602564202084F83D0084F83E0082
:1010C000002070BD30B585B00024009401940294D6
:1010D00003940068174988422AD11748816941F46E
:1010E00080418161816901F480410491816941F00D
:1010F000080181618069114D00F0080004904020D2
:101100000090022001900320039069462846FFF7D3
:101110001FF98020CDE90004694628460294FFF7B4
:1011200017F90748416841F0E06141F0040141606E
:1011300005B030BD0038014000100240000C0140F5
:1011400000000140FEE700002DE9F04180463B48E9
:1011500001263B4D07780024AFB129460B6800F10A
:101160000C010A1D012F13D0022F25D15B6A40F21A
:10117000E737A3F26D2C8360BC452ED203795B0068
:1011800003F0FE0331E006702D48FFF7D5FD4DE07A
:101190005D6A40F2CF77A5F5405CACF1D50C022634
:1011A0008560BC450AD206705C62C47000228C5413
:1011B000521C042AFBDB0471BDE8F081A5F5205523
:1011C0000B3DBD420470F7D2C6700020155C0D5473
:1011D000401C0428FADB5C62EEE7A3F2D763BB4253
:1011E00027D203795B0043F00103037143785B1C52
:1011F0004370DBB2082B06D3447083780779CF5451
:101200005B1C837004718378042B0FD3447084704B
:101210000470C670047100200B5C1354401C042839
:10122000FADB0748FFF7D2FD404680472868446252
:10123000C2E70470447084700471F7E72000002056
:10124000440000202DE9F04186B00024314800948C
:10125000019402940394816941F0200181618169C4
:1012600001F020010491816941F0080181618169E7
:1012700001F008010491816941F0040181618069F4
:10128000012200F00400DFF89080D602049031467D
:101290004046FFF742F9B710002239464046FFF7B3
:1012A0003CF9042000901D480125CDE9010569465F
:1012B0004046FFF74DF811200096CDE901040320C8
:1012C000039069464046FFF743F808200090144811
:1012D000CDE9010569464046FFF73AF80220CDE91D
:1012E0000240CDE9007569464046FFF731F800221B
:1012F00011460820FFF7B6F90820FFF7A5F90022EC
:1013000011460920FFF7AEF90920FFF79DF906B055
:10131000BDE8F08100100240000C014000003110D7
:1013200000002110094810B5074901600321416000
:101330004FF47A618160FFF7FBF8002803D0BDE825
:101340001040FEF7D2BF10BD003000403800002032
:1013500010B586B000241A480094019402940394B6
:1013600004941649059401604721C0E901144FF621
:10137000FF71C0E9031444618461FFF76BFC08B19D
:10138000FEF7B3FF4FF48050009069460C48FFF71A
:1013900030FD08B1FEF7A9FF049404A9084805949C
:1013A000FFF728FC08B1FEF7A0FF0548FFF7E6FCB1
:1013B0000348FFF7C1FC06B010BD0000002C01403F
:1013C0004400002010B586B0002418480094019411
:1013D0000294039404944FF08041059401604721E6
:1013E000C0E901141421C0E903148461FFF732FC41
:1013F00008B1FEF77AFF4FF48050009069460B4821
:10140000FFF7F7FC08B1FEF770FF049404A9074842
:101410000594FFF7EFFB08B1FEF767FF0348FFF7FE
:10142000ADFC0248FFF788FC06B010BD8C00002020
:1014300010B586B0002419480094019402940394D6
:10144000049415490594C0E900144FF6FF71C0E9F2
:10145000024104618461FFF7FDFB08B1FEF745FF1F
:101460004FF48050009069460C48FFF7C2FC08B169
:10147000FEF73BFF049404A908480594FFF7BAFB64
:1014800008B1FEF732FF0548FFF778FC0348FFF785
:1014900053FC06B010BD000000040040D400002042
:1014A0000C4810B50A4901604FF4E1314160002158
:1014B00081600C22C160C0E904128161C161FFF743
:1014C000D0FD002803D0BDE81040FEF70EBF10BDD0
:1014D000003801401C010020FEE7FEE710B5104C6B
:1014E000012020600F48FFF750F81E21002000F077
:1014F0009FF84FF4FA70FEF7FBFE0A48FFF745F835
:101500002821012000F094F85020FEF7F1FE054854
:10151000FFF73BF800F0B8F80020206010BD000095
:101520000000002038000020704700000249002021
:101530000968486270470000440000202DE9F0412E
:10154000354C207800281CD160780127B0B1251DCA
:101550000026012817D0022813D100F061F8DFF827
:10156000BC80A06004214046FEF7D2FF20B30421D6
:101570004046FEF7CDFF012837D041E0FFF7D6FF08
:101580006770BDE8F08100F04BF8A060A0F5B8509E
:1015900040F69F717138884205D2FFF7C7FF0220DD
:1015A0006070A67002E0FFF7C1FF667000202E5445
:1015B000401C0328FBDBE4E7E178685C4006000E92
:1015C0006854A268B2F5C87F02DD40F0010001E076
:1015D00000F0FE006854A078401CC0B2A07008283B
:1015E0000ED3A670491CE1700AE0A06840F25721B2
:1015F000A0F2EF20884202D2FFF798FF00E0667069
:10160000E0780328BDD3E670A67027706770BDE848
:10161000F041FFF78BBF000014000020000C0140D8
:1016200001480068406A704744000020704700008D
:10163000322900D33121054A20B1012801D14D3191
:1016400051807047C1F14B0050807047340000203A
:1016500010B50B4C4FF400612088401C82B22280F0
:10166000638808489A4201D8012200E00022FEF770
:1016700054FF2088B0F57A7F01D30020208010BD70
:1016800034000020000C014002480021018041800C
:101690007047000034000020FEF77EBF30B58FB0E9
:1016A00028216846FEF790FD14210AA8FEF78CFD5C
:1016B0000920012100904FF480300024049106910C
:1016C000CDE901040225CDE90750000109906846E3
:1016D000FFF7EAF808B172B6FEE70F20CDE90A0578
:1016E0004FF48060CDE90C4002210AA80E94FEF769
:1016F000EBFF002801D072B6FEE70FB030BD704797
:101700000148FFF7E2BB0000440000200148FFF75A
:10171000DCBB00008C0000200148FFF7D6BB0000B6
:10172000D400002070B50268134B144C4FF0804673
:10173000984203D0B04201D0A04203D122F07005FC
:101740004A682A43984203D0B04201D0A04203D154
:1017500022F44074CA6822434C6922F0800222437A
:1017600002608A68C2620A688262984201D109698D
:1017700001630121416170BD002C01400004004063
:1017800010B5846842EA032224F47F440A432243CA
:10179000826010BD826822F070020A4342F00701A5
:1017A0008160704710B5036A046A24F00104046282
:1017B000846924F0F00444EA021423F00A020A4384
:1017C0008461026210BD10B5036A23F01003036246
:1017D0008369046A23F4704343EA023224F0A003CD
:1017E00043EA01118261016210BD000070B5044638
:1017F00000680169E26821F44051114301612169E7
:10180000A0680843616908432168CA6841F20C6313
:101810009A430243CA6020684169A26921F4407179
:10182000114341611E492068884202D1FEF7F2FF50
:1018300001E0FEF7DFFF00EBC00101EB0012606882
:1018400064218000B2FBF0F3B3FBF1F36FF01806F4
:101850007343B2FBF0F5B2FBF0F605EB83053223E0
:1018600003EB0515B5FBF1F5B6FBF1F605F0F00558
:1018700005EB0615B2FBF0F6B2FBF0F0B0FBF1F0B1
:101880006FF01802504306EB800003EB0010B0FB32
:10189000F1F0216800F00F002844886070BD00005E
:1018A00000380140FEE70907090E002804DB00F1BB
:1018B000E02080F80014704700F00F0000F1E020F5
:1018C00080F8141D70477047FEF76EFEFFF7E6FEC6
:1018D000FFF728FDFFF7B6FCFFF73AFDFFF772FDB3
:1018E000FFF7A6FDFFF7DCFD454E4FF40078002220
:1018F00041463046FEF711FE0122D1023046FEF786
:101900000CFEDFF800A1DFF800B1DFF80091002540
:101910009AF80000574670B3012241463046FEF760
:10192000FCFD3B4C20784D2813D16078B22828D19B
:10193000A078A32802D0592806D022E0E0785C28BD
:101940001FD1FFF7CBFD04E0E078A62819D1FEF700
:101950009FFC2078842814D16078FF2811D1A078CA
:10196000812802D0012807D00BE0E0787E2808D13A
:10197000FFF7B4FD05E015E0E078FE2801D1FEF7A1
:1019800087FC2448FEF701FE4FF4FA70FEF7B0FC26
:10199000002241463046FEF7C0FD25706570A570F7
:1019A000E5703D709BF800005F460028B0D0012232
:1019B00041463046FEF7B1FD99F800004C46AC2890
:1019C0000CD16078222809D1A07810B1FF2803D06B
:1019D00004E0FFF783FD01E0FEF75AFC0D48FEF737
:1019E000D4FD4FF4FA70FEF783FC002241463046E6
:1019F000FEF793FD25706570A5703D7088E70000C7
:101A0000000C0140230000201400002018000020DA
:101A10002C00002038000020000000000000000022
:101A20000102030406070809000000000102030484
:101A3000501A0008000000203800000028010008AB
:101A4000881A0008380000208807000044010008B8
:101A50000000000001000000100000000000000075
:101A60000024F4000000000000000000000000005E
:101A70000000000000000000000000000000000066
:081A800000000000000000005E
:04000005080000ED02
:00000001FF
