:020000040800F2
:10000000C005002001010008EF18000801150008D4
:10001000ED1800086D010008391F000800000000FD
:10002000000000000000000000000000271B000886
:10003000BD010008000000003D190008911B0008E8
:100040001B0100081B0100081B0100081B01000820
:100050001B0100081B0100081B0100081B01000810
:10006000E9010008EF0100081B0100081B0100085E
:100070001B0100081B0100081B0100081B010008F0
:100080001B0100081B0100081B0100081B010008E0
:100090001B0100081B0100081B0100081B010008D0
:1000A000F91B00081B0100081B0100081B010008C8
:1000B000051C0008111C0008000000001B010008BE
:1000C0001B01000800000000000000001B010008E8
:1000D000000000002D1F00081B01000800000000A8
:1000E0001B0100081B0100081B010008DFF80CD0F1
:1000F00000F02AF800480047C91F0008C00500208A
:100100000648804706480047FEE7FEE7FEE7FEE7B1
:10011000FEE7FEE7FEE7FEE7FEE7FEE7F71B000867
:10012000ED000008D2B201E000F8012B491EFBD21D
:1001300070470022F6E710B513460A4604461946F2
:10014000FFF7F0FF204610BD064C074D06E0E068C3
:1001500040F0010394E8070098471034AC42F6D30E
:10016000FFF7C8FF7022000890220008FEE7000099
:1001700010B5104C012060700F4800F00EFA1E21DF
:10018000012001F0D1FC4FF4FA7000F0A5F80A4804
:1001900000F003FA1E21002001F0C6FC502000F000
:1001A0009BF8054800F0F9F901F0EAFC00206070C6
:1001B00010BD00000000002050000020704700002B
:1001C00070B5084C0546002021684862204600F0C2
:1001D000BBFD2068416AA942FCD3BDE870400148DC
:1001E00000F0FCBDEC000020042000F0ADB80820B9
:1001F00000F0AAB872B6FEE710B590F82110002200
:10020000022905D00421816380F82020012010BD3F
:1002100001680B6823F00E030B6001680B6823F084
:1002200001030B6090F84030C46B012101FA03F325
:10023000636080F8211080F82020104610BD000077
:1002400010B590F821100024022903D00421816305
:1002500001243DE001680A6822F00E020A6001688C
:100260000A6822F001020A601A4A0168914201D12B
:10027000012121E0174A1432914201D110211BE0E3
:10028000144A2832914201D1891515E0114A3C32B5
:10029000914201D189140FE00E4A5032914202D1AD
:1002A0004FF4803108E00B4A6432914202D14FF49E
:1002B000801101E04FF08071064A083A5160012137
:1002C00080F82110002180F82010416B01B188478F
:1002D000204610BD0800024070B5044600F02AF91F
:1002E0000546601C02D004480078044400F022F95E
:1002F000401BA042FAD370BD040000200D49042821
:1003000009780AD0082814D1012912D10A480078A6
:1003100000280ED1094801F0F5B8012909D1084893
:100320000078002805D107480078002801D101F0A5
:100330000FBB70470000002017000020AD1F000811
:100340001400002028000020044910B50A68024269
:1003500002D00860FFF7D2FF10BD00001404014076
:100360002DE9F84FDFF89C91002409F1040A0AF105
:10037000040B23460F270BF1040EBBE00125A5401B
:100380002A40AA4276D1DFF880C14E68A6EB0C085D
:1003900066452BD00DDC032E34D005DC36B3012EA0
:1003A00019D0022E2FD11BE0112E16D0122E2AD1D9
:1003B00019E0B8F5881F19D006DCB8F5803F15D0D4
:1003C000B8F5801F1FD111E0B8F5001F0ED0B8F5A9
:1003D000041F18D10AE0CB6815E0CB681B1D12E0A2
:1003E000CB6808330FE0CB680C330CE08B682BB183
:1003F000012B4FF0080303D0456104E0042302E021
:10040000056100E00023FF2A01D8064601E000F163
:1004100004064FEA840501D9A5F12005D6F800802D
:1004200007FA05FC28EA0C0803FA05F548EA05086E
:10043000C6F800804D68ED005BD5344DAE6946F0DE
:100440000106AE61AD6924F0030605F001050095D3
:100450002F4D06EB050CDCF80850A607360F07FAFF
:1004600006F825EA0805DFF8AC80404503D14FF0D7
:10047000000810E03DE0DFF8A080404502D14FF0D9
:10048000010808E0DFF89480404502D14FF00208EF
:1004900001E04FF0030808FA06F848EA0508CCF82E
:1004A00008804D68D9F80060ED034D4601D516432C
:1004B00000E096432E604D68DAF80060AD035546C3
:1004C00001D5164300E096432E604D68DBF80060CE
:1004D000ED025D4601D5164300E096432E604D685F
:1004E000DEF80060AD02754601D5164300E0964384
:1004F0002E60641C0A6832FA04F57FF43FAFBDE851
:10050000F88F0000000401400000111000100240AC
:100510000000014000080140000C014000100140B3
:100520008068084000D0012070470AB1016170471F
:100530000904FBE7014880687047000004000020C0
:1005400070B5040011D021684CF6CC4008602168D9
:1005500045F255500860D4E9000141602168A06867
:100560008860FFF7E7FF05460DE0012070BD00BF82
:10057000FFF7E0FF401B272805D92068C0688007E7
:1005800001D0032070BD2068C0688007F0D12168C9
:100590004AF6AA200860002070BD00684AF6AA2129
:1005A0000160002070470000024881680278114411
:1005B0008160704704000020074810B5016841F0D1
:1005C00010010160032000F075F80F2000F006F81C
:1005D00000F024F8002010BD0020024070B50D4D41
:1005E00004464FF47A712878B1FBF0F00A490968A3
:1005F000B1FBF0F000F0F0FA48B9102C07D200225D
:100600002146501E00F036F800206C6070BD0120BD
:1006100070BD000004000020100000200C4808B548
:10062000816941F001018161816901F0010100915D
:10063000C16941F08051C161C06900F080500090F3
:100640000448416821F0E06141F00071416008BD5B
:100650000010024000000140002809DB00F01F02EA
:10066000012191404009800000F1E020C0F8001114
:1006700070470000F0B40E4B1B680C46C3F3022316
:10068000C3F10705042D00D90425191D072901D23E
:10069000002300E0DB1E012606FA05F1491E214079
:1006A00099409E40761E16403143F0BC01F04EBC8E
:1006B0000CED00E0064900F0070208684FF6FF0362
:1006C000184040EA0220034A1043086070470000C7
:1006D0000CED00E00000FA052DE9F0470F4605009B
:1006E00061D0434E306800F00700B84209D230684C
:1006F00020F0070038433060306800F00700B8424F
:1007000051D128683B4C810712D5400703D560685A
:1007100040F4E06060602878000703D5606840F42A
:10072000605060606068A96820F0F0000843606075
:100730002878C00728D06868012810D021680228CE
:1007400010D0890700292EDA616821F003010143E6
:100750006160FFF7EFFE804641F288390DE02168C5
:100760008903EFE78901EDE7FFF7E4FEA0EB08015D
:10077000494502D90320BDE8F0876068696800F048
:100780000C00B0EB810FEFD1306800F00700B842E9
:100790000BD9306820F0070038433060306800F033
:1007A0000700B84201D00120E5E72878400705D5C9
:1007B0006068E96820F4E06008436060287800071A
:1007C00006D56068296920F4605040EAC100606085
:1007D00000F038F86168084AC1F30311515CC84061
:1007E0000649086006480068FFF7F8FE0020C2E7E7
:1007F0000020024000100240582200081000002093
:10080000080000200448054900684968044AC1F30B
:100810000221515CC84070471000002000100240C7
:10082000682200080448054900684968044AC1F381
:10083000C221515CC84070471000002000100240E7
:100840006822000813A185B00FC98DE80F0015A01C
:10085000154A00680490516801F00C00042804D087
:10086000082804D0114805B070471148FBE7C1F3D0
:100870008343C9031DF8030009D5516804AAC1F3D5
:100880004041515C0A4A5043B0FBF1F0EBE70949A3
:100890004843E8E702030405060708090A0B0C0DA4
:1008A0000E0F1010010200000010024000127A002A
:1008B000001BB70000093D002DE9F84F040070D07F
:1008C0002078C04DC00749D06868C0F38100012876
:1008D00007D06868C0F38100022809D16868C003A6
:1008E00006D52868800339D560680028E7D035E050
:1008F0006068B0F5803F0BD010B1B0F5A02F11D0DB
:10090000286820F480302860286820F4802002E0E5
:10091000286840F480302860606890B1FFF70AFED4
:1009200006460AE0286840F480202860F0E700BF0F
:10093000FFF700FE801B642873D828688003F7D572
:100940000CE0FFF7F7FD064605E000BFFFF7F2FDFC
:10095000801B6428F0D828688003F7D420789A4E4A
:1009600080074FF001094FF0000839D5686810F092
:100970000C0F07D06868C0F38100022809D16868AD
:10098000C00306D42868800714D52069012808D13F
:1009900010E02069B0B1C6F80090FFF7CBFD074624
:1009A00005E00AE1FFF7C6FDC01B0228C4D828688D
:1009B0008007F7D52868616920F0F80040EAC10097
:1009C00028600DE0C6F80080FFF7B4FD074604E09C
:1009D000FFF7B0FDC01B022823D828688007F7D492
:1009E000207800072CD57948A169D9B1C0F80090CA
:1009F000FFF7A0FD074604E0FFF79CFDC01B02289F
:100A00000FD8686A8007F7D571484FF4FA5100682B
:100A1000B0FBF1F0009000BF0098411E0091FAD2A7
:100A20000EE080E0C0F80080FFF784FD074604E098
:100A3000FFF780FDC01B022875D8686A8007F7D4CD
:100A40002078400760D5E8690027C00008D4E8692D
:100A500040F08050E861E869012700F08050009084
:100A60005C480168C90513D40168834641F480716C
:100A70000160FFF75FFD824606E000BFFFF75AFD09
:100A8000A0EB0A0064284ED8DBF80000C005F5D5BD
:100A9000E06801280AD008B1052813D0286A20F0A0
:100AA00001002862286A20F0040002E0286A40F071
:100AB00001002862E06841F2883B98B1FFF73AFDF7
:100AC00082460BE0286A40F004002862EEE700BF8F
:100AD000FFF730FDA0EB0A0159455AD8286A800774
:100AE000F6D50CE0FFF726FD824605E0FFF722FD74
:100AF000A0EB0A0159454CD8286A8007F6D41FB1EB
:100B0000E86920F08050E861E06988B36968C1F362
:100B10008101022944D00228C6F8608004D0FFF782
:100B200009FD044638E034E0FFF704FD074604E021
:100B3000FFF700FDC01B02282BD828688001F7D4DE
:100B4000206AB0F5803F05D16868A16820F40030C4
:100B500008436860D4E908010843696821F4741106
:100B600008436860C6F86090FFF7E4FC044606E0BE
:100B700025E000BFFFF7DEFC001B022809D828682B
:100B80008001F7D51BE000BFFFF7D4FC001B022853
:100B900002D90320BDE8F88F28688001F4D40EE064
:100BA0000128F7D06868226A00F48031914204D1AC
:100BB000616A00F47010884201D00120EAE7002049
:100BC000E8E7000000100240000042428004424278
:100BD000100000200070004010B5401EB0F1807F72
:100BE00001D3012010BD4FF0E02460610F21601798
:100BF00001F0ACF90020A06107202061002010BDA9
:100C00007047704770B590F83C20012A23D001242A
:100C100080F83C40022280F83D2003685A689D68B5
:100C200022F070060A6832435A600C4B02689A42FE
:100C300005D0B2F1804F02D0094B9A4204D14968E5
:100C400025F080031943916080F83D40002180F831
:100C50003C10084670BD022070BD0000002C014011
:100C60000004004010B5040003D094F83D0010B11A
:100C700007E0012010BD002084F83C00204600F071
:100C80001FF8022084F83D00211D206800F0C6FFF7
:100C9000012084F8460084F83E0084F83F0084F880
:100CA000400084F8410084F8420084F8430084F84E
:100CB000440084F8450084F83D00002010BD000089
:100CC00008B51E4A01681E4891420ED1816941F45F
:100CD000006181618069002200F40060009011468B
:100CE0001820FFF7C7FC182013E0B1F1804F14D093
:100CF000144A914220D1C16941F00201C161C06929
:100D0000002200F00200009011461D20FFF7B2FC07
:100D10001D20BDE80840FFF79FBCC16941F00101FB
:100D2000C161C069002200F00100009011461C2042
:100D3000FFF7A0FC1C20ECE708BD0000002C0140E0
:100D4000001002400004004090F83D10012901D03D
:100D500001207047022180F83D100068094988424F
:100D600005D0B0F1804F02D00749884204D1816894
:100D700001F00701062903D0016841F0010101607B
:100D800000207047002C01400004004090F83D1006
:100D9000012901D001207047022180F83D1001682F
:100DA000CA6842F00102CA6000680A49884205D058
:100DB000B0F1804F02D00849884204D1816801F027
:100DC0000701062903D0016841F0010101600020FC
:100DD00070470000002C01400004004001680A6ACE
:100DE00041F211131A4207D10A6A9B101A4203D129
:100DF0000A6822F001020A60012180F83D100020FB
:100E0000704770B5044690F83C00012817D00125C2
:100E100084F83C50022084F83D002068826822F06B
:100E2000770222F47F4282600868502830D00DDCBF
:100E300020284DD005DC98B310283BD148E0022093
:100E400070BD302844D0402834D139E0602828D003
:100E5000702806D0B0F5805F2CD0B0F5005F29D1A6
:100E60000AE0CB68D1E90121206800F005FF206885
:100E7000816841F0770109E0CB68D1E90121206860
:100E800000F0FAFE2068816841F48041816011E041
:100E9000CA684968206800F001FF5021206807E017
:100EA00016E0CA684968206800F009FF60212068E0
:100EB00000F0ECFE84F83D50002084F83C0070BD4A
:100EC000CA684968206800F0E9FE40212068EFE721
:100ED000226801461046EBE7704770B5044600688B
:100EE00001694FF00005C943890715D4C168C9439A
:100EF000890711D4E91E01610120207720688069EB
:100F00008007204602D0FFF7E7FF04E000F098F8E2
:100F1000204600F096F8257720680169C943490703
:100F200017D4C168C943490713D46FF004010161A4
:100F3000022020772068806910F4407F204602D08C
:100F4000FFF7CAFF04E000F07BF8204600F079F8D4
:100F5000257720680169C943090716D4C168C943C8
:100F6000090712D46FF0080101610420207720687E
:100F7000C0698007204602D0FFF7AEFF04E000F012
:100F80005FF8204600F05DF8257720680169C943C5
:100F9000C90617D4C168C943C90613D46FF010013C
:100FA0000161082020772068C06910F4407F204646
:100FB00002D0FFF791FF04E000F042F8204600F075
:100FC00040F8257720680169C943C90708D1C1687D
:100FD000C943C90704D1891E0161204600F032F8D7
:100FE00020680169C943090609D4C168C9430906D3
:100FF00005D46FF0800101612046FFF701FE2068F3
:101000000169C943490609D4C168C943490605D4E1
:101010006FF040010161204600F02EF82068016960
:10102000C94389060BD4C168C943890607D46FF048
:10103000200101612046BDE87040FFF7E2BD70BDB0
:1010400070477047084988420DD0084988420AD144
:1010500007484078012804D00122D1020548FFF753
:1010600064BA00F071BD70475C000020A40000204D
:1010700000000020000C0140704708B5034690F8BE
:101080003E0020281CD181B17AB193F83C000128A0
:1010900016D0012083F83C001863184600F0F8FED3
:1010A000002803D1196B012901D0012008BD19685E
:1010B0000A684A680092CA6842F01002CA6008BD15
:1010C000022008BD064A904209D1064A012040F696
:1010D000FF7390700A460449044800F0B7B970479E
:1010E00034010020000000203C0000207801002096
:1010F00070470000F8B5026804461068D16853696B
:1011000010F00F0F4FF0000554D003F0010601F46A
:10111000907737435FD0C20705D0CA0503D5226C4C
:1011200042F001022264420705D5DA0703D0226C9F
:1011300042F002022264820705D5DA0703D0226C4E
:1011400042F004022264020707D501F02002324374
:1011500003D0226C42F008022264226C002A35D0AF
:10116000800604D5880602D5204600F0DAFD206806
:101170004069216CC0F3801001F008010143204652
:1011800025D000F0B6FD2068416949061BD54169AC
:1011900021F040014161A06BA8B158494163A06BA7
:1011A000FFF74EF8002811D0A06B416B01B0BDE8ED
:1011B000F040084783060ED58B060CD52046BDE8C7
:1011C000F84000F0AEBD2046FFF792FFF8BDFFF7F4
:1011D0008FFF2564F8BD266B2023012E52D1C60651
:1011E00050D5CE064ED51068506800905069400624
:1011F0002AD5A16B086840680004000CEAD0A68DCF
:101200008642E7D9E0858869202818D0D06820F484
:101210008070D0602068416921F00101416120683F
:10122000416921F04001416184F83E302563206826
:10123000C16821F01001C160A06BFEF7DDFFA08D39
:10124000E18D401A81B219E0A08DE18D401A81B282
:10125000E08D0028BED00029BCD0D06820F490706A
:10126000D0602068426922F00102426184F83E3079
:1012700025632068C26822F01002C2602046FFF792
:1012800021FFF8BD05062BD50D0629D594F83D00A4
:101290002128F6D1A068B0F5805F01D12069B0B1F6
:1012A000206A411C2162216800784860E08C401E61
:1012B0000004000CE084E4D12068C16821F08001C2
:1012C000C1602068C16841F04001C160F8BD206A7A
:1012D0000088C0F308005060206A801C2062E5E7A7
:1012E0004006F3D54806F1D5D168204621F04001EB
:1012F000D16084F83D3000F002F9F8BDE31C00082D
:1013000070B5040004D094F83D00002510B106E04B
:10131000012070BD84F83C50204600F023F82420C2
:1013200084F83D002068C16821F40051C160204666
:1013300000F052FD2068016921F4904101612068AC
:10134000416921F02A0141612068C16841F40051DE
:10135000C1602564202084F83D0084F83E00002010
:1013600070BD000030B585B0002400940194029453
:1013700003942F4D03682F4802210322AB4231D141
:10138000836943F480438361836903F48043049356
:10139000836943F0080383618069274D00F00800EA
:1013A00004904020CDE90001039269462846FEF7EB
:1013B000D7FF8020CDE90004694628460294FEF755
:1013C000CFFF1E48416841F0E06141F004014160F7
:1013D000002211462520FFF74DF92520FFF73CF9A3
:1013E00005B030BD164DAB42FAD1C36943F40033AA
:1013F000C361C36903F400330493836943F00403B6
:10140000836180690F4D00F0040004900420CDE951
:101410000001039269462846FEF7A2FF0820CDE9A5
:101420000004694628460294FEF79AFFD8E70000B8
:101430000038014000100240000C01400000014053
:101440000044004000080140704700002DE9F843C7
:10145000044690F83D001F4616460D4620284CD104
:10146000C5B1BEB194F83C00012846D0012084F8F3
:101470003C004FF00008C4F84080212084F83D0073
:10148000FFF758F8A6848146E684A068B0F5805F2F
:1014900003D004E00120BDE8F883206928B12E467E
:1014A0005FF0000584F83C800EE00026FAE780211A
:1014B000204600F008FDA0B9AEB116F8010B216876
:1014C0004860E08C401EE084E08C4B464FF0000208
:1014D00000970028EBD14FF04001204600F0F3FCCC
:1014E00030B10320D7E735F8020BC0F30800E6E778
:1014F000202084F83D000020CDE70220CBE7704794
:10150000FEE700002DE9F04180463B4801263B4DB7
:1015100007780024AFB129460B6800F10C010A1DC1
:10152000012F13D0022F25D15B6A40F2E737A3F2D7
:101530006D2C8360BC452ED203795B0003F0FE0363
:1015400031E006702D48FFF7FFFB4DE05D6A40F289
:10155000CF77A5F5405CACF1D50C02268560BC4583
:101560000AD206705C62C47000228C54521C042A99
:10157000FBDB0471BDE8F081A5F520550B3DBD42B4
:101580000470F7D2C6700020155C0D54401C04286E
:10159000FADB5C62EEE7A3F2D763BB4227D20379A2
:1015A0005B0043F00103037143785B1C4370DBB2C3
:1015B000082B06D3447083780779CF545B1C837063
:1015C00004718378042B0FD3447084700470C67048
:1015D000047100200B5C1354401C0428FADB0748FC
:1015E000FFF7FCFB4046804728684462C2E704706E
:1015F000447084700471F7E7140000205C00002040
:101600002DE9F04385B000243848009401940294F9
:101610000394816941F020018161816901F0200119
:101620000491816941F004018161816901F0040143
:101630000491816941F0080181618069DFF8B0801F
:1016400000F008000490002202214046FEF76DFFE2
:10165000DFF8A090002201214846FEF766FF012234
:10166000D70239464846FEF760FF02260125CDE93C
:101670000065CDE9024669464046FEF771FE0396D5
:101680000095CDE9015469464846FEF769FE0420FD
:1016900000901948CDE9010569464846FEF760FE0D
:1016A00011200097CDE901040320039069464846C4
:1016B000FEF756FE082000901048CDE90104694667
:1016C0004846FEF74DFE002211460820FEF7D2FFE5
:1016D0000820FEF7C1FF002211460920FEF7CAFFCD
:1016E0000920FEF7B9FF05B0BDE8F0830010024005
:1016F00000080140000C01400000311000002110E2
:10170000094810B507490160032141604FF47A612F
:101710008160FEF715FF002803D0BDE81040FEF7FA
:1017200069BD10BD003000405000002010B586B0EB
:1017300000241A48009401940294039404941649D6
:10174000059401604721C0E901144FF6FF71C0E91B
:10175000031444618461FFF785FA08B1FEF74AFD7E
:101760004FF48050009069460C48FFF74AFB08B1DF
:10177000FEF740FD049404A908480594FFF742FAD7
:1017800008B1FEF737FD0548FFF700FB0348FFF7F8
:10179000DBFA06B010BD0000002C01405C00002008
:1017A00010B586B000241848009401940294039464
:1017B00004944FF08041059401604721C0E9011471
:1017C0001421C0E903148461FFF74CFA08B1FEF755
:1017D00011FD4FF48050009069460B48FFF711FB54
:1017E00008B1FEF707FD049404A907480594FFF724
:1017F00009FA08B1FEF7FEFC0348FFF7C7FA0248F2
:10180000FFF7A2FA06B010BDA400002010B586B004
:1018100000241948009401940294039404941549F7
:10182000059401604721C0E901144FF6FF71C0E93A
:1018300003148461FFF716FA08B1FEF7DBFC4FF4DE
:101840008050009069460C48FFF7DBFA08B1FEF7BC
:10185000D1FC049404A908480594FFF7D3F908B112
:10186000FEF7C8FC0448FFF791FA0348FFF76CFA4B
:1018700006B010BD00040040EC0000200C4810B57C
:101880000A4901604FF4E1314160002181600C227E
:10189000C160C0E904128161C161FFF731FD002818
:1018A00003D0BDE81040FEF7A5BC10BD00380140D4
:1018B000340100200C4810B50A4901604FF4E131B1
:1018C0004160002181600C22C160C0E90412816185
:1018D000C161FFF715FD002803D0BDE81040FEF7F9
:1018E00089BC10BD0044004078010020FEE7FEE7FF
:1018F00010B5104C012060700F48FEF74EFE1E21FF
:10190000002000F011F94FF4FA70FEF7E5FC0A48E8
:10191000FEF743FE2821012000F006F95020FEF7D3
:10192000DBFC0548FEF739FE00F02AF90020607064
:1019300010BD000000000020500000207047000093
:101940000249002009684862704700005C000020DE
:101950002DE9F041354C207800281CD16078012712
:10196000B0B1251D0026012817D0022813D100F0A0
:1019700061F8DFF8BC80A06004214046FEF7D0FD8E
:1019800020B304214046FEF7CBFD012837D041E0CB
:10199000FFF7D6FF6770BDE8F08100F04BF8A0605C
:1019A000A0F5B85040F69F717138884205D2FFF714
:1019B000C7FF02206070A67002E0FFF7C1FF6670EB
:1019C00000202E54401C0328FBDBE4E7E178685C30
:1019D0004006000E6854A268B2F5C87F02DD40F0F0
:1019E000010001E000F0FE006854A078401CC0B285
:1019F000A07008280ED3A670491CE1700AE0A06808
:101A000040F25721A0F2EF20884202D2FFF798FF60
:101A100000E06670E0780328BDD3E670A6702770FA
:101A20006770BDE8F041FFF78BBF00002800002081
:101A3000000C014001480068406A70475C000020CB
:101A4000F8B505460A246E4608E00021685C70542B
:101A5000491C0329FADB684600F04CF8641EF4D2F6
:101A6000F8BD000010B50A4C012211462046FEF7D1
:101A70005CFD40F23110FEF7A3FB0022012120465D
:101A8000FEF753FDBDE8104040F2F320FEF798BB8F
:101A9000000C014010B50A4C012211462046FEF709
:101AA00044FD40F2F320FEF78BFB0022012120468B
:101AB000FEF73BFDBDE8104040F23110FEF780BB61
:101AC000000C014010B50A4C012211462046FEF7D9
:101AD0002CFD40F23110FEF773FB0022012120465D
:101AE000FEF723FDBDE8104042F26C00FEF768BB34
:101AF000000C014070B5054600240026285D000654
:101B000002D5FFF7C7FF01E0FFF7ACFF285D761CA9
:101B100040002855082EF1DB641C032CEDDBBDE8EA
:101B20007040FFF7CFBF7047322900D33121054AFB
:101B300020B1012801D14D3151807047C1F14B00D6
:101B4000508070473400002010B50B4C4FF40061FA
:101B50002088401C82B22280638808489A4201D8BB
:101B6000012200E00022FEF7E0FC2088B0F57A7F39
:101B700001D30020208010BD34000020000C014063
:101B8000024800210180418070470000340000209D
:101B9000FEF70ABD30B58FB028216846FEF7C9FAB6
:101BA00014210AA8FEF7C5FA0920012100904FF47C
:101BB0008030002404910691CDE901040225CDE98D
:101BC0000750000109906846FEF776FE08B172B62C
:101BD000FEE70F20CDE90A054FF48060CDE90C4007
:101BE00002210AA80E94FEF777FD002801D072B6F4
:101BF000FEE70FB030BD70470148FFF76EB9000037
:101C00005C0000200148FFF768B90000A400002034
:101C10000148FFF762B90000EC00002070B50268CF
:101C2000134B144C4FF08046984203D0B04201D081
:101C3000A04203D122F070054A682A43984203D09B
:101C4000B04201D0A04203D122F44074CA682243BA
:101C50004C6922F08002224302608A68C2620A68EC
:101C60008262984201D1096901630121416170BD1D
:101C7000002C01400004004010B5846842EA0322B1
:101C800024F47F440A432243826010BD826822F01C
:101C900070020A4342F007018160704710B5036A81
:101CA000046A24F001040462846924F0F00444EA24
:101CB000021423F00A020A438461026210BD10B5C7
:101CC000036A23F0100303628369046A23F47043F8
:101CD00043EA023224F0A00343EA01118261016267
:101CE00010BD10B5406A0021C185C184FFF700FA1C
:101CF00010BD0168CA6822F49072CA6001684A691E
:101D000022F001024A61016B012904D10168CA680D
:101D100022F01002CA60202180F83E1000210163E9
:101D2000704708B590F83E10222901D0022008BD66
:101D300082684FF480539A4201D1016921B1816ACE
:101D40009A421BD04AB10AE00268816A5268C2F323
:101D500008020A80816A891C08E0026972B102687F
:101D6000526802F07F020A70816A491C8162C18D4B
:101D7000491E0904090CC18503D019E002685268A4
:101D8000F1E70168CA6822F02002CA600168CA68E7
:101D900022F48072CA6001684A6922F001024A6135
:101DA000202180F83E10016B012903D0FFF74CFB86
:101DB000002008BD002101630168CA6822F01002FA
:101DC000CA6001680A68D20602D50A6849680091AB
:101DD000818DFFF777F9EBE770B50446006801697C
:101DE000E26821F44051114301612169A068084370
:101DF000616908432168CA6841F20C639A4302434F
:101E0000CA6020684169A26921F4407111434161AF
:101E10001E492068884202D1FEF704FD01E0FEF76A
:101E2000F1FC00EBC00101EB00126068642180004E
:101E3000B2FBF0F3B3FBF1F36FF018067343B2FBA0
:101E4000F0F5B2FBF0F605EB8305322303EB051545
:101E5000B5FBF1F5B6FBF1F605F0F00505EB06155F
:101E6000B2FBF0F6B2FBF0F0B0FBF1F06FF018024D
:101E7000504306EB800003EB0010B0FBF1F021684B
:101E800000F00F002844886070BD00000038014059
:101E900081628285C28500210164222280F83E2071
:101EA00080F83C100168CA6842F48072CA60016818
:101EB0004A6942F001024A610068C16841F02001AC
:101EC000C160002070472DE9F041984617460E4644
:101ED0000446069D1DE0681C1BD02DB1FEF72AFBB1
:101EE000A0EB0800A84214D92068C16821F4D07181
:101EF000C1602068416921F001014161202084F81E
:101F00003D0084F83E00002084F83C000320BDE83A
:101F1000F0812068006836EA000004D00020B84252
:101F2000D9D00020F3E70120F9E700000148FFF7CE
:101F3000E1B8000034010020FEE70000014A024938
:101F400000F023B8B11F0008380000200907090E6F
:101F5000002804DB00F1E02080F80014704700F056
:101F60000F0000F1E02080F8141D704702E008C85F
:101F7000121F08C1002AFAD170477047002001E003
:101F800001C1121F002AFBD170472DE9F04116460E
:101F90000F460446002503E03946B047641C6D1C1B
:101FA00020780028F8D12846BDE8F081704700006D
:101FB00013B54FF6FF73012269460248FFF746FA50
:101FC00000981CBD7801002095A086B000680190A3
:101FD00094A000240068029093A00068039093A04E
:101FE000006800940490FEF7E7FAFFF7D3FDFFF7CF
:101FF00087FBFFF705FBFFF799FBFFF7D1FBFFF727
:1020000005FCFFF73BFCFFF755FC3220FEF764F9B7
:1020100087A0FFF793FF874E002202213046FEF78C
:1020200084FA142284498548FFF727F8DFF810B2B4
:10203000DFF804A2834D4FF001089BF800005F46D3
:1020400001282BD1012202213046FEF76EFADFF87B
:10205000F8912C7099F80000AC280ED199F8011075
:1020600001290AD199F8020010B1FF2803D004E039
:10207000FFF73EFC01E0FEF77BF87448FEF78DFAAF
:1020800089F8004089F8014089F802403C7085F8E1
:102090000080002202213046FEF747FA6C4F387864
:1020A000012851D1012202213046FEF73EFADFF825
:1020B000A4912C7099F800004D2817D199F80110BF
:1020C0004846B2292DD18178A32902D0592907D0B9
:1020D00027E099F803005C2823D1FFF709FC05E00D
:1020E00099F80300A6281CD1FEF742F899F80010D1
:1020F0004846842915D14178FF2912D18178812958
:1021000002D0012907D00CE099F803007E2808D1FD
:10211000FFF7EEFB05E099F80300FE2801D1FEF77A
:1021200027F84A48FEF739FA89F8004089F8014053
:1021300089F8024089F803403C7085F8008000224D
:1021400002213046FEF7F1F9A87801287FF475AF37
:102150002C703E48FEF721FA012202213046FEF79C
:10216000E4F99AF800005746AC284BD1787860B172
:10217000FF281AD0002069463A5C0A54401C032804
:10218000FADB0846FFF75CFC09E0B87810B1FF28DD
:1021900003D037E0FFF7ACFB01E0FDF7E9FF38784B
:1021A000AC282FD17878FF282CD1B87810B1FF282F
:1021B00013D027E002A8FFF743FC2448FEF7EDF90F
:1021C0004FF49670FEF788F82048FEF7E6F904A869
:1021D000FFF736FCFFF78CFB14E001A8FFF730FC9B
:1021E0001A48FEF7DAF94FF49670FEF775F81748BB
:1021F000FEF7D3F903A8FFF723FC1448FEF7CDF947
:10220000FDF7B6FF002202213046FEF78EF985F871
:102210000080AC70142208490848FEF72EFF0CE736
:10222000AC11FF00AC110000AC22FF00AC2200009A
:10223000310D0A00000801403C000020340100205C
:1022400028000020000000202C000020500000206A
:102250001700002020000020000000000000000007
:10226000010203040607080900000000010203043C
:1022700090220008000000203C0000006C1F0008B5
:10228000CC2200083C000020840500007C1F0008D0
:10229000010000000100000010000000000000002C
:1022A0000024F40000000000000000000000000016
:1022B000000000000000000000000000000000001E
:0C22C00000000000000000000000000012
:04000005080000ED02
:00000001FF
