:020000040800F2
:100000003005002001010008131400080112000847
:10001000111400086D010008051800080000000018
:10002000000000000000000000000000FB140008B9
:100030006F0100080000000015140008FD140008FE
:100040001B0100081B0100081B0100081B01000820
:100050001B0100081B0100081B0100081B01000810
:100060001B0100081B0100081B0100081B01000800
:100070001B0100081B0100081B0100081B010008F0
:100080001B0100081B0100081B0100081B010008E0
:100090001B0100081B0100081B0100081B010008D0
:1000A000611500081B0100081B0100081B01000866
:1000B0006D15000879150008000000001B010008FC
:1000C0001B01000800000000000000001B010008E8
:1000D00000000000F91700081B01000800000000E4
:1000E0001B0100081B0100081B010008DFF80CD0F1
:1000F00000F02AF8004800474518000830050020A5
:100100000648804706480047FEE7FEE7FEE7FEE7B1
:10011000FEE7FEE7FEE7FEE7FEE7FEE75D15000807
:10012000ED000008D2B201E000F8012B491EFBD21D
:1001300070470022F6E710B513460A4604461946F2
:10014000FFF7F0FF204610BD064C074D06E0E068C3
:1001500040F0010394E8070098471034AC42F6D30E
:10016000FFF7C8FF1419000834190008FEE77047AC
:1001700070B5084C0546002021684862204600F012
:100180004FFD2068416AA942FCD3BDE87040014898
:1001900000F068BD1400002072B6FEE710B590F8BC
:1001A00021100022022905D00421816380F820203B
:1001B000012010BD01680B6823F00E030B6001687D
:1001C0000B6823F001030B6090F84030C46B0121F1
:1001D00001FA03F3636080F8211080F820201046B4
:1001E00010BD000010B590F821100024022903D0A2
:1001F0000421816301243DE001680A6822F00E02B7
:100200000A6001680A6822F001020A601A4A01685D
:10021000914201D1012121E0174A1432914201D1CA
:1002200010211BE0144A2832914201D1891515E0B2
:10023000114A3C32914201D189140FE00E4A5032EA
:10024000914202D14FF4803108E00B4A643291426E
:1002500002D14FF4801101E04FF08071064A083A54
:100260005160012180F82110002180F82010416B9D
:1002700001B18847204610BD0800024070B5044611
:1002800000F0F8F80546601C02D0044800780444E9
:1002900000F0F0F8401BA042FAD370BD040000202B
:1002A0002DE9F84FDFF89C91002409F1040A0AF1C6
:1002B000040B23460F270BF1040EBBE00125A540DC
:1002C0002A40AA4276D1DFF880C14E68A6EB0C081E
:1002D00066452BD00DDC032E34D005DC36B3012E61
:1002E00019D0022E2FD11BE0112E16D0122E2AD19A
:1002F00019E0B8F5881F19D006DCB8F5803F15D095
:10030000B8F5801F1FD111E0B8F5001F0ED0B8F569
:10031000041F18D10AE0CB6815E0CB681B1D12E062
:10032000CB6808330FE0CB680C330CE08B682BB143
:10033000012B4FF0080303D0456104E0042302E0E1
:10034000056100E00023FF2A01D8064601E000F124
:1003500004064FEA840501D9A5F12005D6F80080EE
:1003600007FA05FC28EA0C0803FA05F548EA05082F
:10037000C6F800804D68ED005BD5344DAE6946F09F
:100380000106AE61AD6924F0030605F00105009594
:100390002F4D06EB050CDCF80850A607360F07FAC0
:1003A00006F825EA0805DFF8AC80404503D14FF098
:1003B000000810E03DE0DFF8A080404502D14FF09A
:1003C000010808E0DFF89480404502D14FF00208B0
:1003D00001E04FF0030808FA06F848EA0508CCF8EF
:1003E00008804D68D9F80060ED034D4601D51643ED
:1003F00000E096432E604D68DAF80060AD03554684
:1004000001D5164300E096432E604D68DBF800608E
:10041000ED025D4601D5164300E096432E604D681F
:10042000DEF80060AD02754601D5164300E0964344
:100430002E60641C0A6832FA04F57FF43FAFBDE811
:10044000F88F00000004014000001110001002406D
:100450000000014000080140000C01400010014074
:100460008068084000D0012070470AB101617047E0
:100470000904FBE701488068704700000400002081
:1004800002488168027811448160704704000020AE
:10049000074810B5016841F010010160032000F029
:1004A00075F80F2000F006F800F024F8002010BDC9
:1004B0000020024070B50D4D04464FF47A71287843
:1004C000B1FBF0F00A490968B1FBF0F000F0F0FA76
:1004D00048B9102C07D200222146501E00F036F8F1
:1004E00000206C6070BD012070BD00000400002081
:1004F000100000200C4808B5816941F001018161BC
:10050000816901F001010091C16941F08051C1612F
:10051000C06900F0805000900448416821F0E0611B
:1005200041F00071416008BD001002400000014030
:10053000002809DB00F01F020121914040098000E2
:1005400000F1E020C0F8001170470000F0B40E4B3D
:100550001B680C46C3F30223C3F10705042D00D921
:100560000425191D072901D2002300E0DB1E012606
:1005700006FA05F1491E214099409E40761E16401C
:100580003143F0BC01F03FB90CED00E0064900F04A
:10059000070208684FF6FF03184040EA0220034AAA
:1005A00010430860704700000CED00E00000FA0501
:1005B0002DE9F0470F46050061D0434E306800F04A
:1005C0000700B84209D2306820F007003843306095
:1005D000306800F00700B84251D128683B4C8107D1
:1005E00012D5400703D5606840F4E0606060287869
:1005F000000703D5606840F4605060606068A968D7
:1006000020F0F000084360602878C00728D06868B0
:10061000012810D02168022810D0890700292EDA7D
:10062000616821F0030101436160FFF723FF804609
:1006300041F288390DE021688903EFE78901EDE790
:10064000FFF718FFA0EB0801494502D90320BDE8D8
:10065000F0876068696800F00C00B0EB810FEFD1A3
:10066000306800F00700B8420BD9306820F007006E
:1006700038433060306800F00700B84201D00120F4
:10068000E5E72878400705D56068E96820F4E06070
:10069000084360602878000706D56068296920F45F
:1006A000605040EAC100606000F038F86168084AB4
:1006B000C1F30311515CC840064908600648006850
:1006C000FFF7F8FE0020C2E70020024000100240C1
:1006D000FC1800081000002008000020044805490C
:1006E00000684968044AC1F30221515CC840704760
:1006F00010000020001002400C19000804480549B1
:1007000000684968044AC1F3C221515CC84070477F
:1007100010000020001002400C19000813A185B041
:100720000FC98DE80F0015A0154A006804905168A4
:1007300001F00C00042804D0082804D0114805B0AA
:1007400070471148FBE7C1F38343C9031DF8030059
:1007500009D5516804AAC1F34041515C0A4A50438B
:10076000B0FBF1F0EBE709494843E8E70203040571
:10077000060708090A0B0C0D0E0F101001020000ED
:100780000010024000127A00001BB70000093D0073
:100790002DE9F84F040070D02078C04DC00749D033
:1007A0006868C0F38100012807D06868C0F3810041
:1007B000022809D16868C00306D52868800339D5A6
:1007C00060680028E7D035E06068B0F5803F0BD066
:1007D00010B1B0F5A02F11D0286820F48030286027
:1007E000286820F4802002E0286840F480302860E7
:1007F000606890B1FFF73EFE06460AE0286840F4C4
:1008000080202860F0E700BFFFF734FE801B6428DB
:1008100073D828688003F7D50CE0FFF72BFE064657
:1008200005E000BFFFF726FE801B6428F0D828688B
:100830008003F7D420789A4E80074FF001094FF0DB
:10084000000839D5686810F00C0F07D06868C0F34D
:100850008100022809D16868C00306D4286880078F
:1008600014D52069012808D110E02069B0B1C6F87C
:100870000090FFF7FFFD074605E00AE1FFF7FAFDEC
:10088000C01B0228C4D828688007F7D5286861698A
:1008900020F0F80040EAC10028600DE0C6F80080B2
:1008A000FFF7E8FD074604E0FFF7E4FDC01B022860
:1008B00023D828688007F7D4207800072CD57948FA
:1008C000A169D9B1C0F80090FFF7D4FD074604E054
:1008D000FFF7D0FDC01B02280FD8686A8007F7D544
:1008E00071484FF4FA510068B0FBF1F0009000BF7E
:1008F0000098411E0091FAD20EE080E0C0F800801E
:10090000FFF7B8FD074604E0FFF7B4FDC01B02285F
:1009100075D8686A8007F7D42078400760D5E86901
:100920000027C00008D4E86940F08050E861E86919
:10093000012700F0805000905C480168C90513D47D
:100940000168834641F480710160FFF793FD8246A0
:1009500006E000BFFFF78EFDA0EB0A0064284ED82A
:10096000DBF80000C005F5D5E06801280AD008B121
:10097000052813D0286A20F001002862286A20F098
:10098000040002E0286A40F001002862E06841F2B9
:10099000883B98B1FFF76EFD82460BE0286A40F075
:1009A00004002862EEE700BFFFF764FDA0EB0A0138
:1009B00059455AD8286A8007F6D50CE0FFF75AFD4A
:1009C000824605E0FFF756FDA0EB0A0159454CD8D9
:1009D000286A8007F6D41FB1E86920F08050E861EA
:1009E000E06988B36968C1F38101022944D0022813
:1009F000C6F8608004D0FFF73DFD044638E034E0DF
:100A0000FFF738FD074604E0FFF734FDC01B02285E
:100A10002BD828688001F7D4206AB0F5803F05D133
:100A20006868A16820F4003008436860D4E90801D0
:100A30000843696821F4741108436860C6F860903F
:100A4000FFF718FD044606E025E000BFFFF712FDA2
:100A5000001B022809D828688001F7D51BE000BFD9
:100A6000FFF708FD001B022802D90320BDE8F88F1C
:100A700028688001F4D40EE00128F7D06868226A63
:100A800000F48031914204D1616A00F47010884210
:100A900001D00120EAE70020E8E700000010024052
:100AA00000004242800442421000002000700040DA
:100AB00010B5401EB0F1807F01D3012010BD4FF072
:100AC000E02460610F21601700F09DFE0020A0610E
:100AD00007202061002010BD7047704770B590F866
:100AE0003C20012A23D0012480F83C40022280F8D7
:100AF0003D2003685A689D6822F070060A683243F8
:100B00005A600C4B02689A4205D0B2F1804F02D075
:100B1000094B9A4204D1496825F08003194391603A
:100B200080F83D40002180F83C10084670BD02204E
:100B300070BD0000002C01400004004010B504000E
:100B400003D094F83D0010B107E0012010BD002053
:100B500084F83C00204600F01FF8022084F83D0095
:100B6000211D206800F00EFD012084F8460084F865
:100B70003E0084F83F0084F8400084F8410084F887
:100B8000420084F8430084F8440084F8450084F867
:100B90003D00002010BD000008B51E4A01681E4837
:100BA00091420ED1816941F4006181618069002226
:100BB00000F40060009011461820FFF7C7FC1820D1
:100BC00013E0B1F1804F14D0144A914220D1C16991
:100BD00041F00201C161C069002200F002000090F2
:100BE00011461D20FFF7B2FC1D20BDE80840FFF7AD
:100BF0009FBCC16941F00101C161C069002200F0E0
:100C00000100009011461C20FFF7A0FC1C20ECE71F
:100C100008BD0000002C014000100240000400400C
:100C200090F83D10012901D001207047022180F881
:100C30003D1000680949884205D0B0F1804F02D0CC
:100C40000749884204D1816801F00701062903D0D1
:100C5000016841F00101016000207047002C014053
:100C60000004004001680A6A41F211131A4207D1D8
:100C70000A6A9B101A4203D10A6822F001020A6034
:100C8000012180F83D100020704770B5044690F8AF
:100C90003C00012817D0012584F83C50022084F83C
:100CA0003D002068826822F0770222F47F42826051
:100CB0000868502830D00DDC20284DD005DC98B3D2
:100CC00010283BD148E0022070BD302844D0402895
:100CD00034D139E0602828D0702806D0B0F5805F84
:100CE0002CD0B0F5005F29D10AE0CB68D1E9012111
:100CF000206800F075FC2068816841F0770109E008
:100D0000CB68D1E90121206800F06AFC2068816885
:100D100041F48041816011E0CA684968206800F0B0
:100D200071FC5021206807E016E0CA684968206815
:100D300000F079FC6021206800F05CFC84F83D50F4
:100D4000002084F83C0070BDCA684968206800F043
:100D500059FC40212068EFE7226801461046EBE786
:100D6000704770B50446006801694FF00005C9433B
:100D7000890715D4C168C943890711D4E91E0161E7
:100D800001202077206880698007204602D0FFF785
:100D9000E7FF04E000F098F8204600F096F8257789
:100DA00020680169C943490717D4C168C943490785
:100DB00013D46FF00401016102202077206880695C
:100DC00010F4407F204602D0FFF7CAFF04E000F095
:100DD0007BF8204600F079F8257720680169C9433F
:100DE000090716D4C168C943090712D46FF0080176
:100DF0000161042020772068C0698007204602D066
:100E0000FFF7AEFF04E000F05FF8204600F05DF869
:100E1000257720680169C943C90617D4C168C94349
:100E2000C90613D46FF010010161082020772068F3
:100E3000C06910F4407F204602D0FFF791FF04E024
:100E400000F042F8204600F040F82577206801695C
:100E5000C943C90708D1C168C943C90704D1891E5C
:100E60000161204600F032F820680169C943090693
:100E700009D4C168C943090605D46FF08001016136
:100E80002046FFF729FE20680169C943490609D4B5
:100E9000C168C943490605D46FF04001016120468D
:100EA00000F030F820680169C94389060BD4C16895
:100EB000C943890607D46FF0200101612046BDE8CF
:100EC0007040FFF70ABE70BD704770470A4910B501
:100ED000884210D1094C0A484FF48071227802B13F
:100EE0000122FFF7C2FA2078401CC0B2207002280D
:100EF00001D30020207010BDA400002000000020BD
:100F0000000C01407047704770470000F8B5026858
:100F100004461068D168536910F00F0F4FF00005B8
:100F200054D003F0010601F4907737435FD0C20735
:100F300005D0CA0503D5226C42F0010222644207A3
:100F400005D5DA0703D0226C42F002022264820740
:100F500005D5DA0703D0226C42F0040222640207AE
:100F600007D501F02002324303D0226C42F0080280
:100F70002264226C002A35D0800604D5880602D56A
:100F8000204600F082FB20684069216CC0F380108D
:100F900001F008010143204625D000F05EFB2068E7
:100FA000416949061BD5416921F040014161A06BAF
:100FB000A8B158494163A06BFFF714F9002811D07C
:100FC000A06B416B01B0BDE8F040084783060ED529
:100FD0008B060CD52046BDE8F84000F056BB2046F5
:100FE000FFF792FFF8BDFFF78FFF2564F8BD266B72
:100FF0002023012E52D1C60650D5CE064ED51068FC
:1010000050680090506940062AD5A16B0868406876
:101010000004000CEAD0A68D8642E7D9E0858869F5
:10102000202818D0D06820F48070D06020684169F2
:1010300021F0010141612068416921F040014161D5
:1010400084F83E3025632068C16821F01001C1603A
:10105000A06BFFF7A3F8A08DE18D401A81B219E0D3
:10106000A08DE18D401A81B2E08D0028BED000290C
:10107000BCD0D06820F49070D0602068426922F023
:101080000102426184F83E3025632068C26822F084
:101090001002C2602046FFF736FFF8BD05062BD5CB
:1010A0000D0629D594F83D002128F6D1A068B0F5A9
:1010B000805F01D12069B0B1206A411C21622168A2
:1010C00000784860E08C401E0004000CE084E4D10D
:1010D0002068C16821F08001C1602068C16841F0CA
:1010E0004001C160F8BD206A0088C0F3080050606C
:1010F000206A801C2062E5E74006F3D54806F1D55A
:10110000D168204621F04001D16084F83D3000F0E4
:1011100076F8F8BD4B16000870B5040004D094F8BA
:101120003D00002510B106E0012070BD84F83C5060
:10113000204600F023F8242084F83D002068C16890
:1011400021F40051C160204600F0FAFA20680169DC
:1011500021F4904101612068416921F02A01416137
:101160002068C16841F40051C1602564202084F8E2
:101170003D0084F83E00002070BD000030B585B011
:101180000024009401940294039400681849884252
:101190002CD11848816941F480418161816901F451
:1011A00080410491816941F0040181618069124D9F
:1011B00000F0040004904FF40070009002200190B1
:1011C0000320039069462846FFF76AF82815CDE901
:1011D0000004694628460294FFF762F8002211468F
:1011E0002520FFF7B3F92520FFF7A2F905B030BDA0
:1011F000003801400010024000080140704770476D
:10120000FEE70000F0B585B0002423480094019467
:1012100002940394816941F020018161816901F0A8
:1012200020010491816941F004018161816901F02B
:1012300004010491816941F0080181618069174FBF
:1012400000F008000122049011463846FFF70DF91E
:101250004FF44076002231463846FFF706F9302039
:10126000CDE9000469460E480294FFF719F80320FF
:10127000CDE9024001250095694601953846FFF702
:101280000FF80220CDE90240CDE9006569463846F5
:10129000FFF706F805B0F0BD00100240000C014059
:1012A0000008014010B586B000241748009401944E
:1012B0000294039404941349059401604721C0E902
:1012C00001144FF6FF71C0E9031444618461FFF714
:1012D00035FC08B1FEF760FF4FF48050009069467E
:1012E0000948FFF7D2FC08B1FEF756FF049404A9A1
:1012F00005480594FFF7F2FB002801D0FEF74CFFEC
:1013000006B010BD002C01401400002010B586B0BE
:1013100000241748009401940294039404944FF01D
:1013200080410594016041F61F41C0E9011442F279
:101330001071C0E903148461FFF700FC08B1FEF7E7
:101340002BFF4FF48050009069460948FFF79DFC41
:1013500008B1FEF721FF049404A905480594FFF79E
:10136000BDFB002801D0FEF717FF06B010BD00003E
:101370005C00002010B586B000241648009401944B
:101380000294039404941249059401602521C0E954
:1013900001141921C0E903148461FFF7CFFB08B1E0
:1013A000FEF7FAFE4FF48050009069460948FFF7B7
:1013B0006CFC08B1FEF7F0FE049404A905480594FE
:1013C000FFF78CFB002801D0FEF7E6FE06B010BD4B
:1013D00000040040A40000200C4810B50A49016038
:1013E0004FF4E1314160002181600C22C160C0E90D
:1013F00004128161C161FFF78FFE002803D0BDE8B0
:101400001040FEF7C9BE10BD00380140EC000020BE
:10141000FEE7FEE77047F8B505460A246E4608E089
:101420000021685C7054491C0329FADB684600F00F
:101430004BF8641EF4D2F8BD10B50A4C01221146D7
:101440002046FFF712F840F23110FEF791FE00221D
:1014500001212046FFF709F8BDE8104040F2F320D3
:10146000FEF786BE000C014010B50A4C0122114661
:101470002046FEF7FAFF40F2F320FEF779FE002245
:1014800001212046FEF7F1FFBDE8104040F2311087
:10149000FEF76EBE000C014010B50A4C0122114649
:1014A0002046FEF7E2FF40F23110FEF761FE002217
:1014B00001212046FEF7D9FFBDE8104042F26C0042
:1014C000FEF756BE000C014070B50546002400260C
:1014D000285D000602D5FFF7C7FF01E0FFF7ACFF6C
:1014E000285D761C40002855082EF1DB641C032C77
:1014F000EDDBBDE87040FFF7CFBF7047FEF7C0BF20
:1015000030B58FB028216846FEF713FE14210AA8D3
:10151000FEF70FFE01210804CDE90010002402941B
:1015200002250491CDE90750000109906846FFF7B4
:101530002FF908B172B6FEE70F20CDE90A054FF486
:101540008060CDE90C4002210AA80E94FFF730F824
:10155000002801D072B6FEE70FB030BD7047000022
:101560000148FFF7FEBB0000140000200148FFF710
:10157000F8BB00005C0000200148FFF7F2BB000050
:10158000A400002070B50268134B144C4FF0804645
:10159000984203D0B04201D0A04203D122F070059E
:1015A0004A682A43984203D0B04201D0A04203D1F6
:1015B00022F44074CA6822434C6922F0800222431C
:1015C00002608A68C2620A688262984201D109692F
:1015D00001630121416170BD002C01400004004005
:1015E00010B5846842EA032224F47F440A4322436C
:1015F000826010BD826822F070020A4342F0070147
:101600008160704710B5036A046A24F00104046223
:10161000846924F0F00444EA021423F00A020A4325
:101620008461026210BD10B5036A23F010030362E7
:101630008369046A23F4704343EA023224F0A0036E
:1016400043EA01118261016210BD10B5406A0021B8
:10165000C185C184FFF758FC10BD0168CA6822F437
:101660009072CA6001684A6922F001024A61016B06
:10167000012904D10168CA6822F01002CA60202141
:1016800080F83E1000210163704708B590F83E10C5
:10169000222901D0022008BD82684FF480539A426B
:1016A00001D1016921B1816A9A421BD04AB10AE095
:1016B0000268816A5268C2F308020A80816A891C42
:1016C00008E0026972B10268526802F07F020A7093
:1016D000816A491C8162C18D491E0904090CC185BA
:1016E00003D019E002685268F1E70168CA6822F085
:1016F0002002CA600168CA6822F48072CA60016868
:101700004A6922F001024A61202180F83E10016BF3
:10171000012903D0FFF772FD002008BD00210163FD
:101720000168CA6822F01002CA6001680A68D2061D
:1017300002D50A6849680091818DFFF7E4FBEBE769
:1017400070B5044600680169E26821F44051114314
:1017500001612169A0680843616908432168CA687A
:1017600041F20C639A430243CA6020684169A2694E
:1017700021F44071114341611E492068884202D121
:10178000FEF7BCFF01E0FEF7A9FF00EBC00101EB93
:101790000012606864218000B2FBF0F3B3FBF1F348
:1017A0006FF018067343B2FBF0F5B2FBF0F605EBF1
:1017B0008305322303EB0515B5FBF1F5B6FBF1F616
:1017C00005F0F00505EB0615B2FBF0F6B2FBF0F004
:1017D000B0FBF1F06FF01802504306EB800003EB12
:1017E0000010B0FBF1F0216800F00F002844886081
:1017F00070BD0000003801400148FFF787BB0000C2
:10180000EC000020FEE70907090E002804DB00F1C8
:10181000E02080F80014704700F00F0000F1E02095
:1018200080F8141D704702E008C8121F08C1002A82
:10183000FAD170477047002001E001C1121F002A51
:10184000FBD170471CB529A00068009028A0006853
:101850000190FEF71DFEFFF753FEFFF7D3FCFFF7E5
:1018600021FDFFF753FDFFF7B7FDFFF783FD1420C0
:10187000FEF704FD01221F4F560231463846FEF79F
:10188000F4FD1D4C4FF4FA7510212046FEF7E8FDDB
:1018900090B9142003E001A8FFF7BDFD2846FEF72C
:1018A000EDFC10212046FEF7DBFD0028F3D00022DE
:1018B00031463846FEF7D9FD20212046FEF7D0FDFF
:1018C0000028E1D1142003E06846FFF7A4FD284674
:1018D000FEF7D4FC20212046FEF7C2FD0028F3D0FD
:1018E000002231463846FEF7C0FDCDE7AC33FF009D
:1018F000AC330000000C0140000801400000000073
:1019000000000000010203040607080900000000AF
:101910000102030434190008000000201400000034
:101920002618000848190008140000201C050000B3
:101930003618000800000000010000001000000040
:08194000000000000024F40087
:04000005080000ED02
:00000001FF
